{
  "_format": "hh-sol-artifact-1",
  "contractName": "GhostFactory",
  "sourceName": "contracts/factory.sol",
  "abi": [
    {
      "inputs": [
        {
          "internalType": "bytes32",
          "name": "salt",
          "type": "bytes32"
        },
        {
          "internalType": "address",
          "name": "recoveryAddress",
          "type": "address"
        },
        {
          "internalType": "address[]",
          "name": "tokens",
          "type": "address[]"
        }
      ],
      "name": "deployVault",
      "outputs": [
        {
          "internalType": "address",
          "name": "vaultAddress",
          "type": "address"
        }
      ],
      "stateMutability": "payable",
      "type": "function"
    },
    {
      "inputs": [
        {
          "internalType": "bytes32",
          "name": "salt",
          "type": "bytes32"
        },
        {
          "internalType": "address",
          "name": "recoveryAddress",
          "type": "address"
        },
        {
          "internalType": "address[]",
          "name": "tokens",
          "type": "address[]"
        }
      ],
      "name": "getAddress",
      "outputs": [
        {
          "internalType": "address",
          "name": "",
          "type": "address"
        }
      ],
      "stateMutability": "view",
      "type": "function"
    },
    {
      "stateMutability": "payable",
      "type": "receive"
    }
  ],
  "bytecode": "0x608060405234801561001057600080fd5b50610dcf806100206000396000f3fe608060405260043610620000315760003560e01c80631f316163146200003e578063f0626b9914620000745762000039565b366200003957005b600080fd5b6200005c600480360381019062000056919062000360565b620000b8565b6040516200006b9190620003f1565b60405180910390f35b3480156200008157600080fd5b50620000a060048036038101906200009a919062000360565b62000179565b604051620000af9190620003f1565b60405180910390f35b60008060405180602001620000cd906200023a565b6020820181038252601f19601f82011660405250858585604051602001620000f893929190620004e3565b6040516020818303038152906040526040516020016200011a92919062000592565b60405160208183030381529060405290508581516020830134f59150600073ffffffffffffffffffffffffffffffffffffffff168273ffffffffffffffffffffffffffffffffffffffff16036200017057600080fd5b50949350505050565b600080604051806020016200018e906200023a565b6020820181038252601f19601f82011660405250858585604051602001620001b993929190620004e3565b604051602081830303815290604052604051602001620001db92919062000592565b6040516020818303038152906040529050600060ff60f81b3088848051906020012060405160200162000212949392919062000680565b6040516020818303038152906040528051906020012090508060001c92505050949350505050565b6106c380620006d783390190565b600080fd5b600080fd5b6000819050919050565b620002678162000252565b81146200027357600080fd5b50565b60008135905062000287816200025c565b92915050565b600073ffffffffffffffffffffffffffffffffffffffff82169050919050565b6000620002ba826200028d565b9050919050565b620002cc81620002ad565b8114620002d857600080fd5b50565b600081359050620002ec81620002c1565b92915050565b600080fd5b600080fd5b600080fd5b60008083601f8401126200031a5762000319620002f2565b5b8235905067ffffffffffffffff8111156200033a5762000339620002f7565b5b602083019150836020820283011115620003595762000358620002fc565b5b9250929050565b600080600080606085870312156200037d576200037c62000248565b5b60006200038d8782880162000276565b9450506020620003a087828801620002db565b935050604085013567ffffffffffffffff811115620003c457620003c36200024d565b5b620003d28782880162000301565b925092505092959194509250565b620003eb81620002ad565b82525050565b6000602082019050620004086000830184620003e0565b92915050565b600082825260208201905092915050565b6000819050919050565b6200043481620002ad565b82525050565b600062000448838362000429565b60208301905092915050565b6000620004656020840184620002db565b905092915050565b6000602082019050919050565b60006200048883856200040e565b935062000495826200041f565b8060005b85811015620004d657620004ae828462000454565b620004ba88826200043a565b9750620004c7836200046d565b92505060018101905062000499565b5085925050509392505050565b6000604082019050620004fa6000830186620003e0565b81810360208301526200050f8184866200047a565b9050949350505050565b600081519050919050565b600081905092915050565b60005b838110156200054f57808201518184015260208101905062000532565b60008484015250505050565b6000620005688262000519565b62000574818562000524565b9350620005868185602086016200052f565b80840191505092915050565b6000620005a082856200055b565b9150620005ae82846200055b565b91508190509392505050565b60007fff0000000000000000000000000000000000000000000000000000000000000082169050919050565b6000819050919050565b62000605620005ff82620005ba565b620005e6565b82525050565b60008160601b9050919050565b600062000625826200060b565b9050919050565b6000620006398262000618565b9050919050565b620006556200064f82620002ad565b6200062c565b82525050565b6000819050919050565b6200067a620006748262000252565b6200065b565b82525050565b60006200068e8287620005f0565b600182019150620006a0828662000640565b601482019150620006b2828562000665565b602082019150620006c4828462000665565b6020820191508190509594505050505056fe60806040526040516106c33803806106c3833981810160405281019061002591906104af565b60008151905060005b8181101561024957600083828151811061004b5761004a61050b565b5b602002602001015190506000808273ffffffffffffffffffffffffffffffffffffffff166175306370a0823160e01b3060405160240161008b9190610549565b604051602081830303815290604052907bffffffffffffffffffffffffffffffffffffffffffffffffffffffff19166020820180517bffffffffffffffffffffffffffffffffffffffffffffffffffffffff83818316178352505050506040516100f591906105d5565b6000604051808303818686fa925050503d8060008114610131576040519150601f19603f3d011682016040523d82523d6000602084013e610136565b606091505b509150915081801561014a57506020815110155b15610239576000818060200190518101906101659190610622565b90506000811115610237578373ffffffffffffffffffffffffffffffffffffffff1661c35063a9059cbb8a846040516024016101a292919061065e565b6040516020818303038152906040529060e01b6020820180517bffffffffffffffffffffffffffffffffffffffffffffffffffffffff83818316178352505050506040516101f091906105d5565b60006040518083038160008787f1925050503d806000811461022e576040519150601f19603f3d011682016040523d82523d6000602084013e610233565b606091505b5050505b505b838060010194505050505061002e565b50600047905060008111156102cb5760008473ffffffffffffffffffffffffffffffffffffffff168261271090604051610282906106ad565b600060405180830381858888f193505050503d80600081146102c0576040519150601f19603f3d011682016040523d82523d6000602084013e6102c5565b606091505b50509050505b8373ffffffffffffffffffffffffffffffffffffffff16ff5b6000604051905090565b600080fd5b600080fd5b600073ffffffffffffffffffffffffffffffffffffffff82169050919050565b6000610323826102f8565b9050919050565b61033381610318565b811461033e57600080fd5b50565b6000815190506103508161032a565b92915050565b600080fd5b6000601f19601f8301169050919050565b7f4e487b7100000000000000000000000000000000000000000000000000000000600052604160045260246000fd5b6103a48261035b565b810181811067ffffffffffffffff821117156103c3576103c261036c565b5b80604052505050565b60006103d66102e4565b90506103e2828261039b565b919050565b600067ffffffffffffffff8211156104025761040161036c565b5b602082029050602081019050919050565b600080fd5b600061042b610426846103e7565b6103cc565b9050808382526020820190506020840283018581111561044e5761044d610413565b5b835b8181101561047757806104638882610341565b845260208401935050602081019050610450565b5050509392505050565b600082601f83011261049657610495610356565b5b81516104a6848260208601610418565b91505092915050565b600080604083850312156104c6576104c56102ee565b5b60006104d485828601610341565b925050602083015167ffffffffffffffff8111156104f5576104f46102f3565b5b61050185828601610481565b9150509250929050565b7f4e487b7100000000000000000000000000000000000000000000000000000000600052603260045260246000fd5b61054381610318565b82525050565b600060208201905061055e600083018461053a565b92915050565b600081519050919050565b600081905092915050565b60005b8381101561059857808201518184015260208101905061057d565b60008484015250505050565b60006105af82610564565b6105b9818561056f565b93506105c981856020860161057a565b80840191505092915050565b60006105e182846105a4565b915081905092915050565b6000819050919050565b6105ff816105ec565b811461060a57600080fd5b50565b60008151905061061c816105f6565b92915050565b600060208284031215610638576106376102ee565b5b60006106468482850161060d565b91505092915050565b610658816105ec565b82525050565b6000604082019050610673600083018561053a565b610680602083018461064f565b9392505050565b50565b600061069760008361056f565b91506106a282610687565b600082019050919050565b60006106b88261068a565b915081905091905056fea264697066735822122081f418b107cd2c1ba20aa660d99613f39025eabdaf312004fe4be8446b48690d64736f6c63430008180033",
  "linkReferences": {},
  "deployedLinkReferences": {}
}