{
  "_format": "hh-sol-artifact-1",
  "contractName": "UniversalSettler",
  "sourceName": "contracts/UniversalSettler.sol",
  "abi": [
    {
      "inputs": [
        {
          "internalType": "address",
          "name": "r",
          "type": "address"
        }
      ],
      "stateMutability": "nonpayable",
      "type": "constructor"
    },
    {
      "inputs": [
        {
          "internalType": "bytes",
          "name": "",
          "type": "bytes"
        }
      ],
      "name": "x",
      "outputs": [],
      "stateMutability": "payable",
      "type": "function"
    },
    {
      "stateMutability": "payable",
      "type": "receive"
    }
  ],
  "bytecode": "0x60a060405234801561001057600080fd5b506040516102ea3803806102ea833981810160405281019061003291906100cf565b8073ffffffffffffffffffffffffffffffffffffffff1660808173ffffffffffffffffffffffffffffffffffffffff1681525050506100fc565b600080fd5b600073ffffffffffffffffffffffffffffffffffffffff82169050919050565b600061009c82610071565b9050919050565b6100ac81610091565b81146100b757600080fd5b50565b6000815190506100c9816100a3565b92915050565b6000602082840312156100e5576100e461006c565b5b60006100f3848285016100ba565b91505092915050565b6080516101d46101166000396000604c01526101d46000f3fe6080604052600436106100225760003560e01c80638152712b1461002e57610029565b3661002957005b600080fd5b61004860048036038101906100439190610151565b61004a565b005b7f000000000000000000000000000000000000000000000000000000000000000073ffffffffffffffffffffffffffffffffffffffff163373ffffffffffffffffffffffffffffffffffffffff16146100a257600080fd5b6040516044365b808210156100df57813560601c60148301925082356020840193508084863760008082876000865af150808401935050506100a9565b33ff5b600080fd5b600080fd5b600080fd5b600080fd5b600080fd5b60008083601f840112610111576101106100ec565b5b8235905067ffffffffffffffff81111561012e5761012d6100f1565b5b60208301915083600182028301111561014a576101496100f6565b5b9250929050565b60008060208385031215610168576101676100e2565b5b600083013567ffffffffffffffff811115610186576101856100e7565b5b610192858286016100fb565b9250925050925092905056fea26469706673582212203b83644ed816324b7f9886bb950d89de892f39708245e7a5849c84e02f34dc3364736f6c63430008180033",
  "linkReferences": {},
  "deployedLinkReferences": {}
}