{
  "_format": "hh-sol-artifact-1",
  "contractName": "UniversalDeployer",
  "sourceName": "contracts/UniversalSettler.sol",
  "abi": [
    {
      "anonymous": false,
      "inputs": [
        {
          "indexed": false,
          "internalType": "address",
          "name": "settler",
          "type": "address"
        }
      ],
      "name": "Deployed",
      "type": "event"
    },
    {
      "inputs": [
        {
          "internalType": "bytes32",
          "name": "salt",
          "type": "bytes32"
        },
        {
          "internalType": "bytes",
          "name": "stream",
          "type": "bytes"
        },
        {
          "internalType": "address[]",
          "name": "safetyTokens",
          "type": "address[]"
        },
        {
          "internalType": "address payable",
          "name": "recovery",
          "type": "address"
        },
        {
          "internalType": "bytes32",
          "name": "messageHash",
          "type": "bytes32"
        },
        {
          "internalType": "bytes",
          "name": "signature",
          "type": "bytes"
        }
      ],
      "name": "perform",
      "outputs": [],
      "stateMutability": "payable",
      "type": "function"
    },
    {
      "inputs": [
        {
          "internalType": "bytes32",
          "name": "salt",
          "type": "bytes32"
        },
        {
          "internalType": "address payable",
          "name": "recovery",
          "type": "address"
        }
      ],
      "name": "performNative",
      "outputs": [],
      "stateMutability": "payable",
      "type": "function"
    },
    {
      "inputs": [
        {
          "internalType": "bytes32",
          "name": "salt",
          "type": "bytes32"
        }
      ],
      "name": "predictAddress",
      "outputs": [
        {
          "internalType": "address",
          "name": "",
          "type": "address"
        }
      ],
      "stateMutability": "view",
      "type": "function"
    },
    {
      "stateMutability": "payable",
      "type": "receive"
    }
  ],
  "bytecode": "0x6080806040523461001657611485908161001b8239f35b5f80fdfe6080604052600436101561001a575b3615610018575f80fd5b005b5f3560e01c80633212a69f146100495780639c76b654146100445763a4e3493b0361000e576101b4565b61012f565b60c03660031901126100dd5767ffffffffffffffff6024358181116100dd576100769036906004016100e1565b6044358381116100dd57366023820112156100dd5780600401358481116100dd573660248260051b840101116100dd576100ae610120565b9060a4359586116100dd576100ca6100189636906004016100e1565b959094602460843595019160043561041c565b5f80fd5b9181601f840112156100dd5782359167ffffffffffffffff83116100dd57602083818601950101116100dd57565b6001600160a01b038116036100dd57565b6064359061012d8261010f565b565b346100dd5760203660031901126100dd576101486104be565b6020815191012060405190602082019060ff60f81b82523060601b60218401526004356035840152605583015260558252608082019180831067ffffffffffffffff8411176101af57604083905280519091206001600160a01b031682528103605f190190f35b6103a7565b60403660031901126100dd576024356101cc8161010f565b6101d46104be565b80516020600435920134f5906001600160a01b038216156102c6576040516001600160a01b03831681525f92839290917ff40fcec21964ffb566044d083b4073f29f7f7929110ea19e1b3ebe375d89055e90602090a16040516331707e8960e11b602082019081526001600160a01b039092166024820152479061026581604481015b03601f1981018352826103bb565b51925af16102716103dd565b901561027957005b80511561028857805190602001fd5b60405162461bcd60e51b815260206004820152601660248201527514d95d1d1b195c915e1958dd5d1a5bdb91985a5b195960521b6044820152606490fd5b60405162461bcd60e51b815260206004820152600c60248201526b11195c1b1bde51985a5b195960a21b6044820152606490fd5b908060209392818452848401375f828201840152601f01601f1916010190565b9398979592969491906103359160a0865260a08601916102fa565b9760208099858103828701528281520196905f5b81811061037e575050506001600160a01b03166040830152606082015280840360809091015292935061037b926102fa565b90565b9091978a806001928b356103918161010f565b848060a01b031681520199019101919091610349565b634e487b7160e01b5f52604160045260245ffd5b90601f8019910116810190811067ffffffffffffffff8211176101af57604052565b3d15610417573d9067ffffffffffffffff82116101af576040519161040c601f8201601f1916602001846103bb565b82523d5f602084013e565b606090565b95919094956104296104be565b60208151910134f5956001600160a01b038716156102c6576040516001600160a01b03881681525f998a996104a995610257949293919290917ff40fcec21964ffb566044d083b4073f29f7f7929110ea19e1b3ebe375d89055e90602090a14798604051988997602089019c8d63b0bc6a7760e01b905260248a0161031a565b51925af16104b56103dd565b90156102795750565b604051610f706104d160208201836103bb565b8082526104e060208301399056fe60a0346100d857602081017f8b73c3c69bb8fe3d512ecc4cf759cc79239f7b179b0ffacaa9a75d522b39400f81527f9ac997416e8ff9d2ff6bebeb7149f65cdae5e32e2b90440b566bb3044041d36a60408301527fc89efdaa54c0f20c7adf612882df0950f5a951637e0307cdcb4c672f298b8bc660608301524660808301523060a083015260a0825260c082019180831060018060401b038411176100c45782604052519020608052610e9390816100dd823960805181818160ed01526107cd0152f35b634e487b7160e01b5f52604160045260245ffd5b5f80fdfe6080604052600436101561001a575b3615610018575f80fd5b005b5f3560e01c806314bacd5e146100895780633644e5151461008457806362e0fd121461007f57806362f464e21461007a5780636afdd8501461007557806391c5271f146100705763b0bc6a770361000e57610315565b610226565b6101fd565b6101c3565b610110565b6100d6565b346100a85760203660031901126100a8576004356100a6816100ac565bff5b5f80fd5b6001600160a01b038116036100a857565b604435906100ca826100ac565b565b5f9103126100a857565b346100a8575f3660031901126100a85760206040517f00000000000000000000000000000000000000000000000000000000000000008152f35b60203660031901126100a857600435610128816100ac565b4790811561018b575f918291829182916001600160a01b03165af161014b61046d565b501561015357005b60405162461bcd60e51b815260206004820152601060248201526f119bdc9dd85c991a5b99d1985a5b195960821b6044820152606490fd5b60405162461bcd60e51b815260206004820152601060248201526f139bd19d5b991cd51bd19bdc9dd85c9960821b6044820152606490fd5b346100a8575f3660031901126100a85760206040517f37eb8fa75bc46d7536182e81adb1070b78247f06cb96a97416509788953f58af8152f35b346100a8575f3660031901126100a85760206040516e22d473030f116ddee9f6b43ac78ba38152f35b346100a85760803660031901126100a8576100185f80600435610248816100ac565b602435610254816100ac565b8260443591610262836100ac565b6040516323b872dd60e01b602082019081526001600160a01b039283166024830152939091166044820152606480358183015281526102a0816103d3565b51925af16102ac61046d565b816102b8575b506104b4565b80518015925082156102cd575b50505f6102b2565b6102e0925060208091830101910161049c565b5f806102c5565b9181601f840112156100a85782359167ffffffffffffffff83116100a857602083818601950101116100a857565b60a03660031901126100a85767ffffffffffffffff6004358181116100a8576103429036906004016102e7565b6024358381116100a857366023820112156100a85780600401358481116100a8573660248260051b840101116100a85761037a6100bd565b906084359586116100a8576103966100189636906004016102e7565b959094602460643595019161075a565b634e487b7160e01b5f52604160045260245ffd5b67ffffffffffffffff81116103ce57604052565b6103a6565b60a0810190811067ffffffffffffffff8211176103ce57604052565b90601f8019910116810190811067ffffffffffffffff8211176103ce57604052565b604051906040820182811067ffffffffffffffff8211176103ce57604052565b604051906060820182811067ffffffffffffffff8211176103ce57604052565b67ffffffffffffffff81116103ce57601f01601f191660200190565b3d15610497573d9061047e82610451565b9161048c60405193846103ef565b82523d5f602084013e565b606090565b908160209103126100a8575180151581036100a85790565b156104bb57565b60405162461bcd60e51b815260206004820152600e60248201526d151c985b9cd9995c91985a5b195960921b6044820152606490fd5b9291926104fd82610451565b9161050b60405193846103ef565b8294818452818301116100a8578281602093845f960137010152565b1561052e57565b60405162461bcd60e51b815260206004820152601060248201526f496e76616c69645369676e617475726560801b6044820152606490fd5b91908110156105765760051b0190565b634e487b7160e01b5f52603260045260245ffd5b35610594816100ac565b90565b908160209103126100a8575190565b634e487b7160e01b5f52601160045260245ffd5b919082039182116105c757565b6105a6565b906103e882018092116105c757565b90604082018092116105c757565b90602082018092116105c757565b60400190816040116105c757565b90601f82018092116105c757565b919082018092116105c757565b815180516001600160a01b03168252602090810151908201529495936018936101409391929091610679916040906020818101518b84015291015160608a015281516001600160a01b031660808a0152015160a0880152565b60018060a01b031660c086015260e0850152806101008501528301527f4465706c6f796d656e74286279746573333220686173682900000000000000006101608301528061018080610120850152830152806101a093848401375f828201840152601f01601f1916010190565b156106ed57565b60405162461bcd60e51b815260206004820152601160248201527013985d1a5d9954ddd9595c11985a5b1959607a1b6044820152606490fd5b909392938483116100a85784116100a8578101920390565b35906020811061074c575090565b5f199060200360031b1b1690565b929197969390959497604094855199602097888c018c6107a584839190602060408401937f37eb8fa75bc46d7536182e81adb1070b78247f06cb96a97416509788953f58af81520152565b039c601f199d8e810182526107ba90826103ef565b519020885161190160f01b8b82019081527f0000000000000000000000000000000000000000000000000000000000000000600282015260228101929092528d816042840103908101825261080f90826103ef565b51902061081d3685846104f1565b61082691610cd5565b6001600160a01b039661083c8289161515610527565b806109dc575b50505050505047806109b8575b5050505f5b8461085e826105db565b116109af57610892610886610886610880610878856105e9565b858a88610726565b9061073e565b6001600160a01b031690565b6108b26108806108a1846105e9565b6108aa856105db565b908987610726565b90866108c6836108c1866105db565b610613565b1161097f575f80916108f96108f26108dd876105db565b6108ea876108c18a6105db565b908c8a610726565b36916104f1565b90828983519301915af161090b61046d565b90156109345750610929889261092361092e936105f7565b90610613565b610605565b16610854565b8051869190869015610947575080519101fd5b5162461bcd60e51b8152602060048201526012602482015271125b9d195c9b985b10d85b1b11985a5b195960721b6044820152606490fd5b845162461bcd60e51b815260206004820152600960248201526829ba3932b0b6a7a7a160b91b6044820152606490fd5b50505050509050565b5f808093926109d4958294165af16109ce61046d565b506106e6565b5f808061084f565b868b8f8c908b5f935b8685106109f757505050505050610842565b8990610a0d610a08878f8b90610566565b61058a565b85516370a0823160e01b8382018181526001600160a01b038d1660248401529295909290918c915f91829190610a4e81604481015b038c81018352826103ef565b5190895afa610a5b61046d565b9080610cca575b610a81575b505050505050505050600191500187908f8c908b8f6109e5565b808580610a9393518301019101610597565b8015610a67575f610a4293928a610afd8e84956107d08082118714610cc15790610abf918104906105ba565b9788935b516323b872dd60e01b8c82019081526001600160a01b03968716602483015295909216604483015260648201939093529182906084820190565b5190828a5af1610b0b61046d565b5015610b1a575b908b90610a67565b610b6c90610b26610411565b6001600160a01b0388168152958386880152610b41426105cc565b90610b4a610431565b9788528688015289870152610b5d610411565b9a166001600160a01b03168a52565b828901526e22d473030f116ddee9f6b43ac78ba3803b156100a8578f938b8f928f939b8f5f94610bb660019f87938f51998a98899788966309be14ff60e11b885260048801610620565b03925af19081610ca8575b50610c9d578551828101918252306024820152604486810182525f9283929091610beb90826103ef565b5190865afa610bf861046d565b9080610c92575b610c1d575b5050505050505b8f8992508c905f8f8990828f80610b12565b808280610c2f93518301019101610597565b8015610c0457945163a9059cbb60e01b9181019182526001600160a01b039290921660248301526044820194909452606492830181525f93849390918491610c7790826103ef565b51925af150610c8461046d565b508f8c905f8f8c9082610c04565b508181511015610bff565b505050505050610c0b565b80610cb5610cbb926103ba565b806100cc565b5f610bc1565b50978893610ac3565b508481511015610a62565b61059491610ce291610ceb565b90929192610d43565b8151919060418303610d1b57610d149250602082015190606060408401519301515f1a90610dd0565b9192909190565b50505f9160029190565b60041115610d2f57565b634e487b7160e01b5f52602160045260245ffd5b610d4c81610d25565b80610d55575050565b610d5e81610d25565b60018103610d785760405163f645eedf60e01b8152600490fd5b610d8181610d25565b60028103610da25760405163fce698f760e01b815260048101839052602490fd5b80610dae600392610d25565b14610db65750565b6040516335e2f38360e21b81526004810191909152602490fd5b91907f7fffffffffffffffffffffffffffffff5d576e7357a4501ddfe92f46681b20a08411610e52579160209360809260ff5f9560405194855216868401526040830152606082015282805260015afa15610e47575f516001600160a01b03811615610e3d57905f905f90565b505f906001905f90565b6040513d5f823e3d90fd5b5050505f916003919056fea2646970667358221220488dabd5957b8d8481b633522a65ce9356049356d2a5506a6979a5100a1aecc564736f6c63430008180033a2646970667358221220aa6fa8002016c02a5507c897d7da77e0afcfc8cd59083225af5c0037f528f0e664736f6c63430008180033",
  "linkReferences": {},
  "deployedLinkReferences": {}
}