{
  "_format": "hh-sol-artifact-1",
  "contractName": "UniversalDeployer",
  "sourceName": "contracts/UniversalSettler.sol",
  "abi": [
    {
      "anonymous": false,
      "inputs": [
        {
          "indexed": false,
          "internalType": "address",
          "name": "settler",
          "type": "address"
        }
      ],
      "name": "Deployed",
      "type": "event"
    },
    {
      "inputs": [
        {
          "internalType": "bytes32",
          "name": "salt",
          "type": "bytes32"
        },
        {
          "internalType": "bytes",
          "name": "stream",
          "type": "bytes"
        },
        {
          "internalType": "address[]",
          "name": "safetyTokens",
          "type": "address[]"
        },
        {
          "internalType": "address",
          "name": "recovery",
          "type": "address"
        }
      ],
      "name": "perform",
      "outputs": [],
      "stateMutability": "payable",
      "type": "function"
    },
    {
      "inputs": [
        {
          "internalType": "bytes32",
          "name": "salt",
          "type": "bytes32"
        },
        {
          "internalType": "address",
          "name": "recovery",
          "type": "address"
        }
      ],
      "name": "predictAddress",
      "outputs": [
        {
          "internalType": "address",
          "name": "",
          "type": "address"
        }
      ],
      "stateMutability": "view",
      "type": "function"
    },
    {
      "stateMutability": "payable",
      "type": "receive"
    }
  ],
  "bytecode": "0x608060405234801561001057600080fd5b50611663806100206000396000f3fe60806040526004361061002d5760003560e01c806333516835146100395780636bdc02aa1461007657610034565b3661003457005b600080fd5b34801561004557600080fd5b50610060600480360381019061005b91906103ea565b610092565b60405161006d9190610439565b60405180910390f35b610090600480360381019061008b919061050f565b6100de565b005b60008061009e836102d2565b8051906020012090503084826040516020016100bc93929190610676565b6040516020818303038152906040528051906020012060001c91505092915050565b60006100e9826102d2565b905060008782516020840134f59050600073ffffffffffffffffffffffffffffffffffffffff168173ffffffffffffffffffffffffffffffffffffffff1603610167576040517f08c379a000000000000000000000000000000000000000000000000000000000815260040161015e9061071b565b60405180910390fd5b7ff40fcec21964ffb566044d083b4073f29f7f7929110ea19e1b3ebe375d89055e816040516101969190610439565b60405180910390a160008173ffffffffffffffffffffffffffffffffffffffff1647634ccdc86860e01b8a8a8a8a6040516024016101d7949392919061085c565b604051602081830303815290604052907bffffffffffffffffffffffffffffffffffffffffffffffffffffffff19166020820180517bffffffffffffffffffffffffffffffffffffffffffffffffffffffff83818316178352505050506040516102419190610908565b60006040518083038185875af1925050503d806000811461027e576040519150601f19603f3d011682016040523d82523d6000602084013e610283565b606091505b50509050806102c7576040517f08c379a00000000000000000000000000000000000000000000000000000000081526004016102be9061096b565b60405180910390fd5b505050505050505050565b6060604051806020016102e49061033f565b6020820181038252601f19601f82011660405250826040516020016103099190610439565b60405160208183030381529060405260405160200161032992919061098b565b6040516020818303038152906040529050919050565b610c7e806109b083390190565b600080fd5b600080fd5b6000819050919050565b61036981610356565b811461037457600080fd5b50565b60008135905061038681610360565b92915050565b600073ffffffffffffffffffffffffffffffffffffffff82169050919050565b60006103b78261038c565b9050919050565b6103c7816103ac565b81146103d257600080fd5b50565b6000813590506103e4816103be565b92915050565b600080604083850312156104015761040061034c565b5b600061040f85828601610377565b9250506020610420858286016103d5565b9150509250929050565b610433816103ac565b82525050565b600060208201905061044e600083018461042a565b92915050565b600080fd5b600080fd5b600080fd5b60008083601f84011261047957610478610454565b5b8235905067ffffffffffffffff81111561049657610495610459565b5b6020830191508360018202830111156104b2576104b161045e565b5b9250929050565b60008083601f8401126104cf576104ce610454565b5b8235905067ffffffffffffffff8111156104ec576104eb610459565b5b6020830191508360208202830111156105085761050761045e565b5b9250929050565b6000806000806000806080878903121561052c5761052b61034c565b5b600061053a89828a01610377565b965050602087013567ffffffffffffffff81111561055b5761055a610351565b5b61056789828a01610463565b9550955050604087013567ffffffffffffffff81111561058a57610589610351565b5b61059689828a016104b9565b935093505060606105a989828a016103d5565b9150509295509295509295565b600081905092915050565b7fff00000000000000000000000000000000000000000000000000000000000000600082015250565b60006105f76001836105b6565b9150610602826105c1565b600182019050919050565b60008160601b9050919050565b60006106258261060d565b9050919050565b60006106378261061a565b9050919050565b61064f61064a826103ac565b61062c565b82525050565b6000819050919050565b61067061066b82610356565b610655565b82525050565b6000610681826105ea565b915061068d828661063e565b60148201915061069d828561065f565b6020820191506106ad828461065f565b602082019150819050949350505050565b600082825260208201905092915050565b7f4465706c6f794661696c65640000000000000000000000000000000000000000600082015250565b6000610705600c836106be565b9150610710826106cf565b602082019050919050565b60006020820190508181036000830152610734816106f8565b9050919050565b600082825260208201905092915050565b82818337600083830152505050565b6000601f19601f8301169050919050565b6000610778838561073b565b935061078583858461074c565b61078e8361075b565b840190509392505050565b600082825260208201905092915050565b6000819050919050565b6107bd816103ac565b82525050565b60006107cf83836107b4565b60208301905092915050565b60006107ea60208401846103d5565b905092915050565b6000602082019050919050565b600061080b8385610799565b9350610816826107aa565b8060005b8581101561084f5761082c82846107db565b61083688826107c3565b9750610841836107f2565b92505060018101905061081a565b5085925050509392505050565b6000604082019050818103600083015261087781868861076c565b9050818103602083015261088c8184866107ff565b905095945050505050565b600081519050919050565b600081905092915050565b60005b838110156108cb5780820151818401526020810190506108b0565b60008484015250505050565b60006108e282610897565b6108ec81856108a2565b93506108fc8185602086016108ad565b80840191505092915050565b600061091482846108d7565b915081905092915050565b7f457865637574696f6e4661696c65640000000000000000000000000000000000600082015250565b6000610955600f836106be565b91506109608261091f565b602082019050919050565b6000602082019050818103600083015261098481610948565b9050919050565b600061099782856108d7565b91506109a382846108d7565b9150819050939250505056fe60a0604052604051610c7e380380610c7e833981810160405281019061002591906100c2565b8073ffffffffffffffffffffffffffffffffffffffff1660808173ffffffffffffffffffffffffffffffffffffffff1681525050506100ef565b600080fd5b600073ffffffffffffffffffffffffffffffffffffffff82169050919050565b600061008f82610064565b9050919050565b61009f81610084565b81146100aa57600080fd5b50565b6000815190506100bc81610096565b92915050565b6000602082840312156100d8576100d761005f565b5b60006100e6848285016100ad565b91505092915050565b608051610b66610118600039600081816103a801528181610493015261055f0152610b666000f3fe6080604052600436106100225760003560e01c80634ccdc8681461002e57610029565b3661002957005b600080fd5b6100486004803603810190610043919061065b565b61004a565b005b6000808585905090505b806040836100629190610715565b1161024c5760008686849060208661007a9190610715565b9261008793929190610753565b9061009291906107b0565b60001c9050600087876020866100a89190610715565b906040876100b69190610715565b926100c393929190610753565b906100ce91906107b0565b60001c905082816040866100e29190610715565b6100ec9190610715565b111561012d576040517f08c379a00000000000000000000000000000000000000000000000000000000081526004016101249061086c565b60405180910390fd5b6000888860408761013e9190610715565b908460408961014d9190610715565b6101579190610715565b9261016493929190610753565b8080601f016020809104026020016040519081016040528093929190818152602001838380828437600081840152601f19601f82011690508083019250505050505050905060008373ffffffffffffffffffffffffffffffffffffffff16826040516101d091906108fd565b6000604051808303816000865af19150503d806000811461020d576040519150601f19603f3d011682016040523d82523d6000602084013e610212565b606091505b505090508260406102239190610715565b8661022e9190610715565b9550601f19601f876102409190610715565b16955050505050610054565b60008484905011156104815760005b8484905081101561047f57600085858381811061027b5761027a610914565b5b905060200201602081019061029091906109a1565b90506000808273ffffffffffffffffffffffffffffffffffffffff166370a08231306040516024016102c291906109dd565b6040516020818303038152906040529060e01b6020820180517bffffffffffffffffffffffffffffffffffffffffffffffffffffffff838183161783525050505060405161031091906108fd565b600060405180830381855afa9150503d806000811461034b576040519150601f19603f3d011682016040523d82523d6000602084013e610350565b606091505b509150915081801561036457506020815110155b1561046f5760008180602001905181019061037f9190610a24565b9050600081111561046d578373ffffffffffffffffffffffffffffffffffffffff1663a9059cbb7f0000000000000000000000000000000000000000000000000000000000000000836040516024016103d9929190610a60565b6040516020818303038152906040529060e01b6020820180517bffffffffffffffffffffffffffffffffffffffffffffffffffffffff838183161783525050505060405161042791906108fd565b6000604051808303816000865af19150503d8060008114610464576040519150601f19603f3d011682016040523d82523d6000602084013e610469565b606091505b5050505b505b505050808060010191505061025b565b505b6000479050600081111561055d5760007f000000000000000000000000000000000000000000000000000000000000000073ffffffffffffffffffffffffffffffffffffffff16826040516104d590610aaf565b60006040518083038185875af1925050503d8060008114610512576040519150601f19603f3d011682016040523d82523d6000602084013e610517565b606091505b505090508061055b576040517f08c379a000000000000000000000000000000000000000000000000000000000815260040161055290610b10565b60405180910390fd5b505b7f000000000000000000000000000000000000000000000000000000000000000073ffffffffffffffffffffffffffffffffffffffff16ff5b600080fd5b600080fd5b600080fd5b600080fd5b600080fd5b60008083601f8401126105c5576105c46105a0565b5b8235905067ffffffffffffffff8111156105e2576105e16105a5565b5b6020830191508360018202830111156105fe576105fd6105aa565b5b9250929050565b60008083601f84011261061b5761061a6105a0565b5b8235905067ffffffffffffffff811115610638576106376105a5565b5b602083019150836020820283011115610654576106536105aa565b5b9250929050565b6000806000806040858703121561067557610674610596565b5b600085013567ffffffffffffffff8111156106935761069261059b565b5b61069f878288016105af565b9450945050602085013567ffffffffffffffff8111156106c2576106c161059b565b5b6106ce87828801610605565b925092505092959194509250565b6000819050919050565b7f4e487b7100000000000000000000000000000000000000000000000000000000600052601160045260246000fd5b6000610720826106dc565b915061072b836106dc565b9250828201905080821115610743576107426106e6565b5b92915050565b600080fd5b600080fd5b6000808585111561076757610766610749565b5b838611156107785761077761074e565b5b6001850283019150848603905094509492505050565b600082905092915050565b6000819050919050565b600082821b905092915050565b60006107bc838361078e565b826107c78135610799565b92506020821015610807576108027fffffffffffffffffffffffffffffffffffffffffffffffffffffffffffffffff836020036008026107a3565b831692505b505092915050565b600082825260208201905092915050565b7f53747265616d4f4f420000000000000000000000000000000000000000000000600082015250565b600061085660098361080f565b915061086182610820565b602082019050919050565b6000602082019050818103600083015261088581610849565b9050919050565b600081519050919050565b600081905092915050565b60005b838110156108c05780820151818401526020810190506108a5565b60008484015250505050565b60006108d78261088c565b6108e18185610897565b93506108f18185602086016108a2565b80840191505092915050565b600061090982846108cc565b915081905092915050565b7f4e487b7100000000000000000000000000000000000000000000000000000000600052603260045260246000fd5b600073ffffffffffffffffffffffffffffffffffffffff82169050919050565b600061096e82610943565b9050919050565b61097e81610963565b811461098957600080fd5b50565b60008135905061099b81610975565b92915050565b6000602082840312156109b7576109b6610596565b5b60006109c58482850161098c565b91505092915050565b6109d781610963565b82525050565b60006020820190506109f260008301846109ce565b92915050565b610a01816106dc565b8114610a0c57600080fd5b50565b600081519050610a1e816109f8565b92915050565b600060208284031215610a3a57610a39610596565b5b6000610a4884828501610a0f565b91505092915050565b610a5a816106dc565b82525050565b6000604082019050610a7560008301856109ce565b610a826020830184610a51565b9392505050565b50565b6000610a99600083610897565b9150610aa482610a89565b600082019050919050565b6000610aba82610a8c565b9150819050919050565b7f4e617469766553776565704661696c6564000000000000000000000000000000600082015250565b6000610afa60118361080f565b9150610b0582610ac4565b602082019050919050565b60006020820190508181036000830152610b2981610aed565b905091905056fea2646970667358221220e9b49aeb7720ba4ea8e6ee46521a70984a43472801896a3d2182b8f8f0f5a32164736f6c63430008180033a264697066735822122055084c7e6affe9ec55deddc95d4f96a40879e1e39dd709c659cb7f9f5c71406764736f6c63430008180033",
  "linkReferences": {},
  "deployedLinkReferences": {}
}