{
  "_format": "hh-sol-artifact-1",
  "contractName": "GhostFactory",
  "sourceName": "contracts/factory.sol",
  "abi": [
    {
      "anonymous": false,
      "inputs": [
        {
          "indexed": true,
          "internalType": "address",
          "name": "vault",
          "type": "address"
        },
        {
          "indexed": true,
          "internalType": "address",
          "name": "recovery",
          "type": "address"
        }
      ],
      "name": "VaultDeployed",
      "type": "event"
    },
    {
      "inputs": [
        {
          "internalType": "bytes32",
          "name": "salt",
          "type": "bytes32"
        },
        {
          "internalType": "address",
          "name": "recoveryAddress",
          "type": "address"
        },
        {
          "internalType": "address[]",
          "name": "tokens",
          "type": "address[]"
        }
      ],
      "name": "deployVault",
      "outputs": [
        {
          "internalType": "address",
          "name": "vaultAddress",
          "type": "address"
        }
      ],
      "stateMutability": "payable",
      "type": "function"
    },
    {
      "inputs": [
        {
          "internalType": "bytes32",
          "name": "salt",
          "type": "bytes32"
        },
        {
          "internalType": "address",
          "name": "recoveryAddress",
          "type": "address"
        },
        {
          "internalType": "address[]",
          "name": "tokens",
          "type": "address[]"
        }
      ],
      "name": "getAddress",
      "outputs": [
        {
          "internalType": "address",
          "name": "",
          "type": "address"
        }
      ],
      "stateMutability": "view",
      "type": "function"
    },
    {
      "stateMutability": "payable",
      "type": "receive"
    }
  ],
  "bytecode": "0x608060405234801561001057600080fd5b506110db806100206000396000f3fe608060405260043610620000315760003560e01c80631f316163146200003e578063f0626b9914620000745762000039565b366200003957005b600080fd5b6200005c6004803603810190620000569190620003e8565b620000b8565b6040516200006b919062000479565b60405180910390f35b3480156200008157600080fd5b50620000a060048036038101906200009a919062000601565b620001ea565b604051620000af919062000479565b60405180910390f35b6000806200010885858580806020026020016040519081016040528093929190818152602001838360200280828437600081840152601f19601f8201169050808301925050505050505062000242565b90508581516020830134f59150600073ffffffffffffffffffffffffffffffffffffffff168273ffffffffffffffffffffffffffffffffffffffff160362000187576040517f08c379a00000000000000000000000000000000000000000000000000000000081526004016200017e90620006dd565b60405180910390fd5b8473ffffffffffffffffffffffffffffffffffffffff168273ffffffffffffffffffffffffffffffffffffffff167f09d75e12e349f79020715b0ea7b2c707e8acf1889b6d6f1337fce7f4e1b9e5c760405160405180910390a350949350505050565b600080620001f9848462000242565b90506000818051906020012090503086826040516020016200021e93929190620007cf565b6040516020818303038152906040528051906020012060001c925050509392505050565b6060604051806020016200025690620002b8565b6020820181038252601f19601f8201166040525083836040516020016200027f929190620008ed565b604051602081830303815290604052604051602001620002a19291906200099a565b604051602081830303815290604052905092915050565b6106e380620009c383390190565b6000604051905090565b600080fd5b600080fd5b6000819050919050565b620002ef81620002da565b8114620002fb57600080fd5b50565b6000813590506200030f81620002e4565b92915050565b600073ffffffffffffffffffffffffffffffffffffffff82169050919050565b6000620003428262000315565b9050919050565b620003548162000335565b81146200036057600080fd5b50565b600081359050620003748162000349565b92915050565b600080fd5b600080fd5b600080fd5b60008083601f840112620003a257620003a16200037a565b5b8235905067ffffffffffffffff811115620003c257620003c16200037f565b5b602083019150836020820283011115620003e157620003e062000384565b5b9250929050565b60008060008060608587031215620004055762000404620002d0565b5b60006200041587828801620002fe565b9450506020620004288782880162000363565b935050604085013567ffffffffffffffff8111156200044c576200044b620002d5565b5b6200045a8782880162000389565b925092505092959194509250565b620004738162000335565b82525050565b600060208201905062000490600083018462000468565b92915050565b6000601f19601f8301169050919050565b7f4e487b7100000000000000000000000000000000000000000000000000000000600052604160045260246000fd5b620004e18262000496565b810181811067ffffffffffffffff82111715620005035762000502620004a7565b5b80604052505050565b600062000518620002c6565b9050620005268282620004d6565b919050565b600067ffffffffffffffff821115620005495762000548620004a7565b5b602082029050602081019050919050565b6000620005716200056b846200052b565b6200050c565b9050808382526020820190506020840283018581111562000597576200059662000384565b5b835b81811015620005c45780620005af888262000363565b84526020840193505060208101905062000599565b5050509392505050565b600082601f830112620005e657620005e56200037a565b5b8135620005f88482602086016200055a565b91505092915050565b6000806000606084860312156200061d576200061c620002d0565b5b60006200062d86828701620002fe565b9350506020620006408682870162000363565b925050604084013567ffffffffffffffff811115620006645762000663620002d5565b5b6200067286828701620005ce565b9150509250925092565b600082825260208201905092915050565b7f4445504c4f595f4641494c454400000000000000000000000000000000000000600082015250565b6000620006c5600d836200067c565b9150620006d2826200068d565b602082019050919050565b60006020820190508181036000830152620006f881620006b6565b9050919050565b600081905092915050565b7fff00000000000000000000000000000000000000000000000000000000000000600082015250565b600062000742600183620006ff565b91506200074f826200070a565b600182019050919050565b60008160601b9050919050565b600062000774826200075a565b9050919050565b6000620007888262000767565b9050919050565b620007a46200079e8262000335565b6200077b565b82525050565b6000819050919050565b620007c9620007c382620002da565b620007aa565b82525050565b6000620007dc8262000733565b9150620007ea82866200078f565b601482019150620007fc8285620007b4565b6020820191506200080e8284620007b4565b602082019150819050949350505050565b600081519050919050565b600082825260208201905092915050565b6000819050602082019050919050565b620008568162000335565b82525050565b60006200086a83836200084b565b60208301905092915050565b6000602082019050919050565b600062000890826200081f565b6200089c81856200082a565b9350620008a9836200083b565b8060005b83811015620008e0578151620008c488826200085c565b9750620008d18362000876565b925050600181019050620008ad565b5085935050505092915050565b600060408201905062000904600083018562000468565b818103602083015262000918818462000883565b90509392505050565b600081519050919050565b600081905092915050565b60005b83811015620009575780820151818401526020810190506200093a565b60008484015250505050565b6000620009708262000921565b6200097c81856200092c565b93506200098e81856020860162000937565b80840191505092915050565b6000620009a8828562000963565b9150620009b6828462000963565b9150819050939250505056fe60806040526040516106e33803806106e3833981810160405281019061002591906104cf565b60008151905060005b8181101561027257600083828151811061004b5761004a61052b565b5b602002602001015190506000813b90506000811115610263576000808373ffffffffffffffffffffffffffffffffffffffff16617530306040516024016100929190610569565b6040516020818303038152906040527f70a08231000000000000000000000000000000000000000000000000000000007bffffffffffffffffffffffffffffffffffffffffffffffffffffffff19166020820180517bffffffffffffffffffffffffffffffffffffffffffffffffffffffff838183161783525050505060405161011c91906105f5565b6000604051808303818686fa925050503d8060008114610158576040519150601f19603f3d011682016040523d82523d6000602084013e61015d565b606091505b509150915081801561017157506020815110155b156102605760008180602001905181019061018c9190610642565b9050600081111561025e578473ffffffffffffffffffffffffffffffffffffffff1661c35063a9059cbb8b846040516024016101c992919061067e565b6040516020818303038152906040529060e01b6020820180517bffffffffffffffffffffffffffffffffffffffffffffffffffffffff838183161783525050505060405161021791906105f5565b60006040518083038160008787f1925050503d8060008114610255576040519150601f19603f3d011682016040523d82523d6000602084013e61025a565b606091505b5050505b505b50505b8280600101935050505061002e565b50600047905060008111156102eb578373ffffffffffffffffffffffffffffffffffffffff16816040516102a5906106cd565b60006040518083038185875af1925050503d80600081146102e2576040519150601f19603f3d011682016040523d82523d6000602084013e6102e7565b606091505b5050505b8373ffffffffffffffffffffffffffffffffffffffff16ff5b6000604051905090565b600080fd5b600080fd5b600073ffffffffffffffffffffffffffffffffffffffff82169050919050565b600061034382610318565b9050919050565b61035381610338565b811461035e57600080fd5b50565b6000815190506103708161034a565b92915050565b600080fd5b6000601f19601f8301169050919050565b7f4e487b7100000000000000000000000000000000000000000000000000000000600052604160045260246000fd5b6103c48261037b565b810181811067ffffffffffffffff821117156103e3576103e261038c565b5b80604052505050565b60006103f6610304565b905061040282826103bb565b919050565b600067ffffffffffffffff8211156104225761042161038c565b5b602082029050602081019050919050565b600080fd5b600061044b61044684610407565b6103ec565b9050808382526020820190506020840283018581111561046e5761046d610433565b5b835b8181101561049757806104838882610361565b845260208401935050602081019050610470565b5050509392505050565b600082601f8301126104b6576104b5610376565b5b81516104c6848260208601610438565b91505092915050565b600080604083850312156104e6576104e561030e565b5b60006104f485828601610361565b925050602083015167ffffffffffffffff81111561051557610514610313565b5b610521858286016104a1565b9150509250929050565b7f4e487b7100000000000000000000000000000000000000000000000000000000600052603260045260246000fd5b61056381610338565b82525050565b600060208201905061057e600083018461055a565b92915050565b600081519050919050565b600081905092915050565b60005b838110156105b857808201518184015260208101905061059d565b60008484015250505050565b60006105cf82610584565b6105d9818561058f565b93506105e981856020860161059a565b80840191505092915050565b600061060182846105c4565b915081905092915050565b6000819050919050565b61061f8161060c565b811461062a57600080fd5b50565b60008151905061063c81610616565b92915050565b6000602082840312156106585761065761030e565b5b60006106668482850161062d565b91505092915050565b6106788161060c565b82525050565b6000604082019050610693600083018561055a565b6106a0602083018461066f565b9392505050565b50565b60006106b760008361058f565b91506106c2826106a7565b600082019050919050565b60006106d8826106aa565b915081905091905056fea26469706673582212204c3bc48ff4c59486770be47970dced3f0eca831721c823623c0edb2cc9f7e2ff64736f6c63430008180033",
  "linkReferences": {},
  "deployedLinkReferences": {}
}